:020000041000EA
:1000000000B5324B212058609868022188439860DF
:10001000D860186158612E4B002199600221596106
:100020000121F02299502B49196001219960352056
:1000300000F044F80222904214D00621196600F024
:1000400034F8196E01211966002018661A6600F04E
:100050002CF8196E196E196E052000F02FF8012189
:100060000842F9D1002199601B49196000215960AB
:100070001A491B48016001219960EB211966A021F2
:10008000196600F012F800219960164914480160C1
:100090000121996001BC002800D000471248134993
:1000A000086003C880F30888084703B5996A0420EC
:1000B0000142FBD001200142F8D103BD02B5186610
:1000C0001866FFF7F2FF186E186E02BD00000240BE
:1000D000000000180000070000035F00212200005C
:1000E000F4000018222000A00001001008ED00E03C
:1000F00000000000000000000000000074B24E7A12
:1001000000200420F7010010C3010010C5010010F9
:10011000C1010010C1010010C1010010C101001097
:10012000C1010010C1010010C1010010C701001081
:10013000C1010010C1010010C9010010CB01001065
:10014000CD010010CD010010CD010010CD01001037
:10015000CD010010CD010010CD010010CD01001027
:10016000CD010010CD010010CD010010CD01001017
:10017000CD010010CD010010CD010010CD01001007
:10018000CD010010CD010010CD010010CD010010F7
:10019000CD010010CD010010CD010010CD010010E7
:1001A000CD010010CD010010CD010010CD010010D7
:1001B000CD010010CD010010CD010010CD010010C7
:1001C00000BE00BE00BE00BE00BE00BEEFF3058054
:1001D000103800BEF2EB88711C66011054660110E5
:1001E0003402001090A31AE700201F49086006C8D7
:1001F00081F3088810471D48006800282FD10DA4FE
:100200000ECC002902D000F012F8F9E71849194A7B
:10021000002000E001C19142FCD1174988471749ED
:1002200088471749884700BEFDE701C901C29A42C5
:10023000FBD3704754660110C0000020C424002086
:10024000588A01100000042000000420588A011080
:10025000001004200010042000000000704709482E
:1002600004F0F4FC0047000008ED00E0000000D0BE
:10027000C824002008330020A5390010791400108C
:10028000633900105756000006005250ABB360535C
:10029000B03F011006005250861C0302C03F0110FF
:1002A000060052505422A29DCC3F0110050052502E
:1002B000DE65F468588A0110F8B5C04610B5064CE2
:1002C0002378002B07D1054B002B02D0044800E017
:1002D00000BF0123237010BDD025002000000000C6
:1002E000882E0110044B10B5002B03D0034904489D
:1002F00000E000BF10BDC04600000000D425002073
:10030000882E011030B583B00C00002313E06B463B
:10031000DA1D1570002106E083699B06FCD4137872
:100320000360013101320029F6D023780D3B5A4297
:100330005341DBB201342578002D29D0002BE6D1C2
:10034000144B984213D000235B00134A9B5EAB42D0
:100350000FD06B46DA1D157000210029E5D18369A5
:100360009B06FCD41378036001310132F5E70123C9
:10037000EAE76B46DA1D0D23137000210029E8D14E
:1003800083699B06FCD41378036001310132F5E7E1
:1003900003B030BD00800340E4320020F0B5C64613
:1003A00000B582B001AC514B2380C046C046C04668
:1003B000D0252D068026B600AE61C046C046C04698
:1003C0000120002102F09CFB494F0222210038004D
:1003D00012F0F2FCC046C046C0466E61C046C04640
:1003E000C0460120002102F08BFB6B232370002309
:1003F00098466370C046C046C046AE61C046C0461F
:10040000C0460120002102F07BFB022221003800BF
:1004100012F0D2FCC046C046C0466E61C046C0461F
:10042000C0460120002102F06BFB6C232370434681
:100430006370C046C046C046AE61C046C046C046B6
:100440000120002102F05CFB02222100380012F0A2
:10045000B3FCC046C046C0466E61C046C046C046FA
:100460000120002102F04CFB1B23237043466370E4
:10047000C046C046C046AE61C046C046C046012028
:10048000002102F03DFB02222100380012F094FC12
:10049000C046C046C0466E61C046C046C046012048
:1004A000002102F02DFB1C23237043466370C046DD
:1004B000C046C046AE61C046C046C04601200021CD
:1004C00002F01EFB02222100380012F075FCC0462B
:1004D000C046C0466E61C046C046C04601200021ED
:1004E00002F00EFB02B080BCB846F0BD6A0300000B
:1004F00000000440F0B5C64600B582B0884615003D
:100500006B46D91D0870C2B280235B4213430B7047
:10051000C046C046C046D02636068027BF00B76119
:10052000C046C046C0460F4C0122200012F044FCD9
:100530000120002102F0E4FA2B00424600212000B5
:1005400012F0D2FBC046C046C0467761C046C046E6
:10055000C0460120002102F0D3FA02B080BCB846A8
:10056000F0BDC04600000440F0B583B005000E00A9
:100570001700062269463B20FFF7BCFF002309E075
:100580005A0069468C5C2402511C6846415C214338
:10059000A9520133022BF3DD062269464320FFF7FF
:1005A000A9FF002309E058006A46155C2D02421C91
:1005B00069468C5C2C4334520133022BF3DD02225A
:1005C00069464120FFF796FF6B461A7812025B7866
:1005D00013433B8003B0F0BDF0B5C64600B582B012
:1005E00006000F0015009846062269463B20FFF7DB
:1005F00081FF002409E063006A46D15C09025A1CAD
:100600006846825C0A43FA520134022CF3DD06226A
:1006100069464320FFF76EFF002109E04A006B4660
:100620009B5C1B02501C6C46205C1843A852013195
:100630000229F3DD022269464120FFF75BFF6B468A
:100640001A7812025B78134342461380002306E0B7
:1006500059009A0090596A5A121A6A520133022BB1
:10066000F6DD02B080BCB846F0BD0000F0B5C6466D
:1006700000B50500884614001F00002600E0013682
:10068000114B9E4211DC3A0021004046FFF76CFFFF
:100690000023022BF3DC9A00AA185900095F1068A6
:1006A0008446614411600133F3E70026022E08DC22
:1006B000B4002C190549206804F0F4FA20600136D2
:1006C000F4E780BCB846F0BD0F27000010270000FB
:1006D000F0B5C64600B507008846C046C046C046CD
:1006E000D02424062025A561C046C046C04601206E
:1006F000002102F005FA174E03223900300012F0F3
:100700005BFBC046C046C0466561C046C046C046A9
:100710000120002102F0F4F9C046C046C046A561A0
:10072000C046C046C0460120002102F0E9F903227C
:100730004146300012F040FBC046C046C0466561ED
:10074000C046C046C0460120002102F0D9F980BC55
:10075000B846F0BD00C0034070B582B0B94B1A88EE
:1007600069468A809B788B71B74B1A880A809B7880
:100770008B7001A8FFF7ACFF002306E001AA072158
:10078000D15403226946CA540133022BF6DDC04618
:10079000C046C046D02424062025A561C046C046D8
:1007A000C0460120002102F0ABF9A84E032201A9A6
:1007B000300012F001FBC046C046C0466561C0462D
:1007C000C046C0460120002102F09AF9C046C0464A
:1007D000C046A561C046C046C0460120002102F0C7
:1007E0008FF903226946300012F0E6FAC046C0468F
:1007F000C0466561C046C046C0460120002102F0E7
:100800007FF9002303E0FF226946CA540133022B1B
:10081000F9DDC046C046C046D02424062025A56187
:10082000C046C046C0460120002102F069F90322FB
:100830006946864812F0C0FAC046C046C0466561A7
:10084000C046C046C0460120002102F059F90023ED
:1008500006E001AA0921D15450226946CA54013345
:10086000022BF6DD694601A8FFF732FF002303E003
:1008700001AA0A21D1540133022BF9DD694601A8EE
:10088000FFF726FF002303E001AA0B21D154013317
:10089000022BF9DD694601A8FFF71AFF002303E0E8
:1008A00001AA0C21D1540133022BF9DD694601A8BC
:1008B000FFF70EFF002306E001AA0E21D1541922F2
:1008C0006946CA540133022BF6DD694601A8FFF7D9
:1008D000FFFE002306E001AA0F21D1542922694618
:1008E000CA540133022BF6DD694601A8FFF7F0FE7A
:1008F000002306E001AA1021D15429226946CA54D6
:100900000133022BF6DD694601A8FFF7E1FE002363
:1009100006E001AA1621D15407226946CA540133C0
:10092000022BF6DD694601A8FFF7D2FE002306E0A0
:1009300001AA1321D1540F226946CA540133022B54
:10094000F6DD694601A8FFF7C3FE002306E001AA11
:100950001421D1547F226946CA540133022BF6DD9B
:10096000694601A8FFF7B4FE002306E001AA18219A
:10097000D1542E226946CA540133022BF6DDC046FB
:10098000C046C046D02424062025A561C046C046E6
:10099000C0460120002102F0B3F82C4E032201A929
:1009A000300012F009FAC046C046C0466561C04634
:1009B000C046C0460120002102F0A2F8C046C04651
:1009C000C046A561C046C046C0460120002102F0D5
:1009D00097F803226946300012F0EEF9C046C0468F
:1009E000C0466561C046C046C0460120002102F0F5
:1009F00087F8002303E088226946CA540133022B9A
:100A0000F9DDC046C046C046D02424062025A56195
:100A1000C046C046C0460120002102F071F8032202
:100A200069460A4812F0C8F9C046C046C04665612A
:100A3000C046C046C0460120002102F061F80023F4
:100A40000DE0C046882E0110202F011000C0034089
:100A500001AA0521D15420226946CA540133022B30
:100A6000F6DD694601A8FFF733FE02B070BDC0464F
:100A700070B586B005AB624C25881D80A4789C704B
:100A800004AC604B1D8825809D78A57003AC1D8843
:100A900025809D78A57002AC1D8825809B78A37069
:100AA00000236C4623806380A38000281DDD05ABF6
:100AB00051241C70C317C01858406B461880002979
:100AC00019DD05AB51205870CB17C91859406B463A
:100AD0005980002A15DD05AB51219970D317D21822
:100AE0005A406B469A8000231AE00028E2DA05ABF0
:100AF00050241C70DEE70029E6DA05AB5020587060
:100B0000E2E7002AEADA05AB50219970E6E75A00DD
:100B10006946525A100A03A9C85402A9CA5401339B
:100B2000022BF4DDC046C046C046D0242406202552
:100B3000A561C046C046C0460120002101F0E0FF8B
:100B4000314E032205A9300012F036F9C046C046E6
:100B5000C0466561C046C046C0460120002101F084
:100B6000CFFFC046C046C046A561C046C046C0468D
:100B70000120002101F0C4FF032204A9300012F07B
:100B80001BF9C046C046C0466561C046C046C04667
:100B90000120002101F0B4FFC046C046C046A56157
:100BA000C046C046C0460120002101F0A9FF032233
:100BB00003A9300012F000F9C046C046C046656186
:100BC000C046C046C0460120002101F099FFC04642
:100BD000C046C046A561C046C046C04601200021AF
:100BE00001F08EFF032202A9300012F0E5F8C046A2
:100BF000C046C0466561C046C046C04606B070BD2E
:100C00008C2E0110202F011000C00340F0B583B0DE
:100C100004000D00124B1A8869468A809B788B71FC
:100C2000C046C046C046D02636062027B761C0461B
:100C3000C046C0460120002101F062FF032201A945
:100C4000084812F0B9F8C046C046C0467761C046B1
:100C5000C046C04600232B60236003B0F0BDC046F1
:100C60008C2E011000C0034010B51C00002802D1DA
:100C70000023236010BD101C05F0A9FB024905F0FC
:100C8000C6FB2060F6E7C0460000A04110B51C007E
:100C9000002802D10023236010BD101C05F097FB33
:100CA000024905F0B4FB2060F6E7C0460000C841E9
:100CB00070B51C00002804D100230A4A1360236089
:100CC00070BD101C05F083FB051C064E316805F055
:100CD0007EFB054905F085FB044905F098FB206083
:100CE0003560EDE74C2600208797F1340AD7233C86
:100CF00070B51C00002804D100230A4A1360236049
:100D000070BD101C05F063FB051C064E316805F034
:100D10005EFB054905F065FB044905F078FB2060A2
:100D20003560EDE7482600208797F1340AD7233C49
:100D300070B50D1C1C1C059E002808D100230F4A0D
:100D400013600F4A13603360069A136070BD111C64
:100D5000281C05F041FB094D296805F03DFB30607A
:100D60000499201C05F038FB054C216805F034FB84
:100D7000069B186033682B602060E7E7442600205C
:100D800040260020F0B5D6464F464646C0B5071C63
:100D90000E1C90469A4680231B069C468444E146DE
:100DA000C81805F0D9FB0022184B04F01AFA040009
:100DB0000D00484605F0D0FB154A164B04F011FA19
:100DC00002000B002000290004F0E4F904F092FA7C
:100DD00043461880381C05F0BFFB0D4A0D4B04F04C
:100DE00000FA02000B002000290004F0D3F904F0FF
:100DF00081FA53461880301C05F06CFB089B188064
:100E0000E0BCBA46B146A846F0BDC0460000E03F8F
:100E1000AA4C58E87AB6EB3F70B5041C0E001500DA
:100E2000C021090605F02AFB00280AD08021C90547
:100E3000201C05F01DFB002803D0002333802B80ED
:100E400017E0201C05F088FB0A4A0B4B04F0C9F997
:100E500004F0AEFA0022094B04F0C3F9084A094B2A
:100E600004F0BFF904F046FA00B2308080B240428C
:100E7000288070BDAF99D76C40DF913F0024D3C06C
:100E80002E2109148E98F33FF0B5C64600B5041C18
:100E9000884617001E00C021090605F0EFFA002859
:100EA0000CD08021C905201C05F0E2FA002805D0ED
:100EB0000023424613803B80338021E0201C05F054
:100EC0004BFB114A114B04F08CF904F071FA040049
:100ED0000D0000220E4B04F084F900220D4B04F0AB
:100EE00080F904F007FA00B24346188038800022E7
:100EF000094B2000290004F074F904F0FBF930805C
:100F000080BCB846F0BDC046AF99D76C40DF913F7A
:100F10000024D3400000E03F0024D3C070B504ACEF
:100F20000025655F05AC0026A65FC01884B200B23C
:100F300049198DB209B2921996B212B2FFF798FD13
:100F4000631B069A13806419A4B2A41B079B1C8020
:100F500070BD0000F0B5DE4657464E464546E0B54A
:100F600089B00700019106920793149B9B460223C8
:100F7000C65E76420423C05E04F0A4F904000D00AE
:100F8000300004F09FF922002B0004F027FA04F04F
:100F9000EDF9061C0022BB5E99460223F85E404331
:100FA0000422BB5E5B43C01804F08CF904F0EAF93C
:100FB00004000D00484604F085F922002B0004F0DF
:100FC0000DFA04F0D3F9041C80252D06701905F0E4
:100FD000C3FAC14AC14B04F004F904F0C7F9029006
:100FE000601905F0B9FABC4ABC4B04F0FAF804F0F9
:100FF000BDF90390BA4A916ABA4B1868091A04916C
:10100000926A1A60B84B1B78BFF35B8FDB0700D482
:101010002FE1B64B1B78BFF35B8FDB0700D439E1C0
:10102000B34B1B78BFF35B8FDB0700D443E1B14CBC
:10103000206805F091FAB04AB04B04F0D2F804F001
:1010400095F901902060AE4C206805F085FAAA4A17
:10105000AA4B04F0C6F804F089F9051C2060A94EDB
:10106000306805F079FAA44AA44B04F0BAF804F009
:101070007DF9041C3060A44A90461668301C05F0C7
:1010800089FA071CA14A924612689146101C05F085
:1010900095FA391C059005F0BAF9011C281C05F0D9
:1010A000B6F9011C019805F097F90190301C05F084
:1010B0005DFA061C059905F0AAF9011C201C05F033
:1010C000A6F9011C019805F087F90190311C281C34
:1010D00005F09DF9059080231B06F918201C05F0EA
:1010E00096F9011C059805F077F90590484605F03A
:1010F0003DFA8146011C381C05F073F9011C281CBF
:1011000005F085F9051C4946301C05F06AF9011CFB
:10111000201C05F07CF9011C281C05F05DF9041C5D
:10112000049805F0B0F9051C011C201C05F06FF9AE
:1011300005F012FA764A774B04F053F804F016F9EA
:10114000041C019E301C05F007FA734A734B04F02F
:1011500048F804F00BF9069B1860059F381C05F051
:10116000FBF96D4A6D4B04F03CF804F0FFF8079B67
:101170001860311C281C05F04AF905F0EDF9644AA5
:10118000644B04F02EF804F0F1F8061C391C281CFE
:1011900005F03DF905F0E0F95D4A5E4B04F021F8F9
:1011A00004F0E4F8051C5E4F311C386805F014F9B2
:1011B00038605C4F291C386805F00EF93860211C36
:1011C0005B46186805F008F95B461860564C2168C4
:1011D000301C05F001F9554905F019F9061C544970
:1011E000029805F014F9011C301C05F0F5F8129B6B
:1011F0001860504E3168281C05F0EEF84B4905F098
:1012000006F9051C4A49039805F001F9011C281C40
:1012100005F0E2F8051C139B1860129B186820600B
:10122000356005F099F93C4A3C4B03F0DAFF04F0D5
:101230009DF843461860281C05F08EF9364A374B56
:1012400003F0CFFF04F092F8534618605B4618682D
:1012500005F082F9304A314B03F0C3FF04F086F801
:10126000354B186009B0F0BCBB46B246A946A04653
:10127000F0BD1D4808F0F8F9002800D1C9E6019B2F
:101280000020185E05F004F91A4B1860164808F0A3
:1012900007FABEE6154808F0E7F9002800D1BFE6D6
:1012A000019B0220185E05F0F3F8154B18600F48FB
:1012B00008F0F6F9B4E60E4808F0D6F9002800D197
:1012C000B5E6019B0420185E05F0E2F80D4B1860AE
:1012D000074808F0E5F9AAE6A79196CADBA54C40B5
:1012E000004005403C260020EC250020F025002091
:1012F000F42500201C260020E2E47E87A2407F3FE8
:1013000020260020242600202C2600203026002025
:101310008DEDB5A0F7C6B03EAF99D76C40DF913FD9
:10132000342600203826002014260020F6287C3F92
:1013300080C2753C1826002028260020F0B5C6463D
:1013400000B50F00161C1D1C03F0BCFF3F4A404BAC
:1013500003F047FF3F4A404B03F043FF04F006F819
:10136000041C380003F0AEFF384A394B03F039FF54
:10137000384A394B03F035FF03F0F8FF071C201CF7
:1013800005F0EAF8354A364B03F02BFF0022354BC7
:1013900003F027FF344A354B03F023FF03F0E6FF49
:1013A000041C381C05F0D8F82C4A2D4B03F019FF0B
:1013B00000222C4B03F015FF2B4A2C4B03F011FF9E
:1013C00003F0D4FF071C301C05F0C6F8234A244B59
:1013D00003F007FF03F0CAFF061C281C05F0BCF849
:1013E0001E4A1F4B03F0FDFE03F0C0FF8046201C89
:1013F00005F0B2F804000D00404605F0ADF81C4AB7
:101400001C4B03F0EEFE02000B002000290003F04D
:10141000C1FE03F0ABFF069B1860381C05F09CF87A
:1014200004000D00301C05F097F8114A114B03F031
:10143000D8FE02000B002000290003F0ABFE03F0F1
:1014400095FF079B186080BCB846F0BD403965C960
:1014500077848E3FCDCCCCCCCCCCFC3FAF99D76C35
:1014600040DF913F00003E40FCA9F1D24D62503F69
:10147000333333333333C33FF0B5DE4657464E463E
:101480004546E0B5ABB000242994289427942694CF
:101490002594249400232393229315941494139455
:1014A0001294119410942E2204A98C466244138045
:1014B0000FAA13800E942622624413800DAA138073
:1014C0002222624413800CAA13801E2262441380DD
:1014D0000BAA13801A22624413800AAA138005F013
:1014E00013FCE121BB4E4902300001F0B7FF02219D
:1014F000002000F087F90221012000F083F9B649AD
:101500003000FEF7FFFEB549B54808F073F8012139
:10151000082000F077F901210A2000F073F9012179
:101520000B2000F06FF9092000F09EF9D0252D0660
:1015300080239B006B626B61AA49AB4808F05AF8A4
:101540000121032000F05EF90121022000F05AF988
:101550000121042000F056F9052000F085F9202330
:101560006B626B61FEF71AFFFFF7F6F84A2304AAD5
:101570009446634417AA19A91FA8FFF777F81727FD
:1015800004AB9C466744012239007520FEF7B2FF88
:101590003978964805F0ACFB102000F065F98023FF
:1015A0005B02AB6200220121102000F043F9112000
:1015B00000F05AF980239B026B626B61642001F09A
:1015C000CBFA8B493000FEF79DFE0023059306936E
:1015D00007941E00B1E0D0231B06802292025A61BC
:1015E0007C4B9B6910210A001A40194200D1C0E0CF
:1015F000059B01330593FA239B00059A9A4202DD6D
:1016000000260023079315AB259A079C211C300068
:10161000FFF72AFB14AB259A211C3000FFF748FB8B
:10162000002413AB249A211C0020FFF72FFB12ABE0
:10163000249A211C0020FFF75BFB10AB029311AB37
:101640000193129B0093139B149A15993000FFF796
:101650006FFB0FAD02952E2404AB9C4664440194AD
:101660002227674400970DAB2622624410991198F7
:10167000FFF788FB0CAB9B461E2304AA94466344E9
:101680001A0059462998FFF7C7FB0AAB98461A2358
:1016900004AA9446634499460BAB9A4643464A468D
:1016A00051462898FFF7F0FB5B461B88524612888C
:1016B0009B1804AAD18B4A4612888C4694441BB2CC
:1016C000994600217A5E04A92420095E04A82627F1
:1016D000C05F0395029447460023FF5E019767466B
:1016E0003FB200974B46FFF719FC5A2304AA9446D1
:1016F00063441BAA1DA91FA8FEF76EFF0EAB029341
:1017000028AB019329AB009326AB27AA1BA91DA8E0
:10171000FFF720FC0023E95E0023E05E24AB019389
:1017200025AB0093279B269AFFF708FE314B9B6A57
:10173000069A9B1A304A93423FD8D0231B065B6817
:10174000DB0300D447E7D0252D068027BF026F6159
:10175000FA246400200001F0FFF9AF61200001F0DD
:10176000FBF922A923A8FFF751FA224B9B6A0693A3
:10177000E3E7063104AB9C466144002A09D1154BCE
:101780009B69DB06FBD4134B1B680B7001320131E4
:10179000F3E7162304AA944663441B78772B02D000
:1017A0000023059327E7002E04D105960136134B3D
:1017B000079320E7002305931DE7079804F0CCFE6C
:1017C00002000B000E4805F093FA0A4B9B6A069341
:1017D000B3E7C04600400340902E011040420F0086
:1017E0000000044000093D0000C00340CC2E011061
:1017F000E42E011000400540A08601009A99993E10
:10180000042F011010B58300084A944663441C68F5
:1018100040226240C02414408022520113431C60C5
:10182000C000034B9C466044416010BD04C00140B1
:101830000040014080000B4B9C46604400290DD0C5
:101840000823002A0CD004221343026853400C22C0
:101850001340802252011043036070470023F0E7D9
:101860000022F1E704C0014010B501238340D022DB
:101870001206936293610521FFF7C4FF10BD0000BB
:10188000034B1B6802201840431E9841C0B27047AA
:1018900000C00640EFF3108072B6034B1B68002BAC
:1018A000FBD0BFF35F8F70472C0100D0BFF35F8F79
:1018B000024B00221A6080F3108870472C0100D080
:1018C000F8B506000C001500FFF7E4FFE308F71871
:1018D000F15C07222240012393400B4205D1DBB289
:1018E0000B433B70FFF7E2FFF8BD2100280002F038
:1018F000D5F8F0B583B00600019114001F00FFF782
:10190000C9FF00E00134BC420CD8E308F518F35CD1
:101910000721214001228A401A42F3D1D2B21A4350
:101920002A7001E001246442FFF7C0FF002C02DBB3
:10193000200003B0F0BD019B002BF9D0089802F005
:10194000ADF80000002307E0054A9A189200BFF3A3
:101950005F8F0021116001331F2BF5D97047C046FE
:1019600040000034054A1078431CDBB21370172B7B
:1019700002D9130010221A707047C046681B00205D
:1019800000B583B00100044B00931F2318220348C5
:10199000FFF7AFFF03B000BD4C2F0110F42B002068
:1019A000074B9B68103080001950BFF35F8FBFF367
:1019B0005F8F044B0021196082F310887047C04686
:1019C00000ED00E0240100D010B5091A081F0A4BF1
:1019D0009C466144094A914208D8C30706D4401086
:1019E0004005400D064B184380B210BD054B064A1A
:1019F000A321064801F0B8FFFC070000FE0F00001D
:101A000000E0FFFF682F0110F4310110982F011042
:101A100010B5091A04394C08090B08D14905490DBC
:101A2000064A11430180064B2343438010BD054BFA
:101A3000054AAB21054801F097FFC04600F0FFFFC3
:101A400000F8FFFFF42F0110C8310110982F01108A
:101A500001238340034A10681840431E9841C0B2D6
:101A60007047C04600E100E0002904D0034B186035
:101A7000034B18607047034B1860FBE780E200E0FF
:101A800000E100E080E100E010B501238340180090
:101A9000FFF7EAFF10BD000001238340014A1360F5
:101AA0007047C04600E200E0024B9B6810308000A7
:101AB000C058704700ED00E010B5FFF7F5FF0028B3
:101AC00005D0054BC01A2F2803D8012010BD0020D7
:101AD000FCE70020FAE7C0466C1B002070B504004C
:101AE0000D00EFF3108672B60C4B1B68002BFBD079
:101AF000BFF35F8F2000FFF7D7FF094B984201D05B
:101B0000A84205D1320029002000FFF749FF70BD2F
:101B1000044B054A8621054801F026FF240100D028
:101B2000CD0100100430011028320110982F01104F
:101B3000F0B5DE4657464E464546E0B589B081468B
:101B400001911500EFF3108A72B6744B1B68002BDD
:101B5000FBD0BFF35F8F724B0027DF57002F40DBB6
:101B60007C00E419A4006F4824180622A2566C4B8E
:101B70001A706D4B9A684B4610339B00D3589846A9
:101B80001E001B1A2F2B38D9684B98452FD105AE54
:101B9000674B33807B009B46D8198000614B984689
:101BA000404402306349FFF70FFF7080624BB380FF
:101BB000FF23B371F571019B07935F44BF00474456
:101BC0000ECE0EC701231C43A0465246414648464E
:101BD000FFF7E6FE09B0F0BCBB46B246A946A046F8
:101BE000F0BD564B564AD721564801F0BDFE564B24
:101BF000534ADE21534801F0B7FEC04340440C2154
:101C000003F078F8002912D101239E43B346330034
:101C10000026DA79AA4211D90621595600290CDB8F
:101C20004A00521892001E003E4B9B18F1E7474BAA
:101C3000434AEA21434801F097FE1E00002E3AD0A5
:101C400005AB434A1A80813A5A800623F356029321
:101C5000002B17DA3F4805AB9B469880029A9A7191
:101C6000DD71019A0792301D2100FFF7ADFEB080B3
:101C7000B7717B00DB199B002A4FFF185B4607CB2F
:101C800007C7A2E77800C0198000264BC0180430AF
:101C9000321DB388D90A1C2907D15B0559150231B9
:101CA00049005118FFF790FED5E72B4B2B4AB12185
:101CB000244801F059FE05AE1D4B33807B00029392
:101CC000D8198000174A9046020042440392901CA3
:101CD0001849FFF779FE7080039A101D5946FFF7E7
:101CE00073FEB0801E4B5A464146521A524153432E
:101CF0001B0DB371F571019A0792029B9C466744D4
:101D0000BF0047440ECE0EC7114B5A461380813B8D
:101D1000538001231C43A04657E7C046240100D04E
:101D2000023300206C1B002000ED00E0CD0100100C
:101D300000A1FFFF9C1B002001BDFFFF3C300110F4
:101D400010320110982F0110643001108C300110F6
:101D50000148000001BD00000031011000320110F7
:101D6000AAAA0000F0B5CE46474680B583B006006B
:101D70000D00EFF3108872B6564B1B68002BFBD09A
:101D8000BFF35F8F544B9A6834001034A300D758C8
:101D9000524B9F4207D0AF4200D198E00197504B81
:101DA000FB1A2F2B09D9424639003000FFF7F8FD06
:101DB00003B0C0BCB946B046F0BD3000FFF748FEE6
:101DC000814600213000FFF75FFEBFF35F8FEFF326
:101DD0000581002901D08C4211D10123019C9C4333
:101DE0000022A368AB4212D00622A256002A0DDBC5
:101DF00053009B189B002200394CE418F1E7362170
:101E0000384B394AFF31394801F0AEFD2200AB4270
:101E100056D106256557002D38DB6B005B199A00FB
:101E20002F4B9B189A68A260DA79E27106229A56C3
:101E3000A2719B795BB2002B0FDA2D48A0806B005A
:101E40005B199B00264AD3182A4A1178997115709C
:101E500049463000FFF718FEA5E7201D6B005B190F
:101E60009B001F4A9B181A1D9B88D90A1C2907D161
:101E70005B055B15023359005118FFF7A5FDDDE73F
:101E80001D4B1E4AB121194801F06EFD002912D1E7
:101E9000002A0ED0FF239371194B9380154A1378B3
:101EA000A371184B0E49641A644163431B0D1370F0
:101EB000CEE70A4FF2E7201D1349FFF7A9FDC7E758
:101EC0006A21124B084AFF31084801F04DFD034FCB
:101ED00069E7C046240100D000ED00E0CD0100100C
:101EE0006C1B002018310110E0310110982F0110F7
:101EF00001BD00000233002000310110003201104A
:101F000001BDFFFFAAAA0000A61B00204C31011052
:101F100070B5012101432E4BCB1A2F2B28D8EFF39C
:101F20000583002B2BD0EFF3108C72B6294A126870
:101F3000002AFBD0BFF35F8F274A0400244D641BA7
:101F400064416243120D54B2244A92689B00D258F5
:101F50008A421BD00022032A32D853009B189B00D0
:101F60001B49CB189B795BB2A3421FD00132F2E729
:101F7000C7211B4B1B4A49001B4801F0F5FC92216D
:101F80001A4B184AFF31184801F0EEFC134A9268C8
:101F90001749D150174B1A7882711C70BFF35F8FAD
:101FA0000C4B00221A608CF3108870BD0D0053009A
:101FB000991889006918FF268E710F4A8A80E9E70F
:101FC000D1210E4B074A4900074801F0CDFCC0461D
:101FD0006C1B0020240100D0AAAA000000ED00E044
:101FE00054310110AC310110982F01107C310110D7
:101FF000CD0100100233002001BDFFFF8831011028
:102000000022044B02E0044902C30132072AFAD934
:102010007047C04600E400E08080808000B583B057
:102020000100064B0093052300220548FFF761FCE1
:10203000002801DB1F23181A03B000BD90310110E6
:1020400007330020024B9C466144890001607047C1
:102050004000003410B50400FFF784FC01002000AC
:10206000FFF7F0FFFF232371BFF35F8F10BD10B5A3
:102070000400FFF777FC01002000FFF7E3FFFF23D8
:10208000237100236371BFF35F8F10BD034B9C4628
:10209000614489000160BFF35F8F704740000034E6
:1020A00010B504000120FFF76BFC01002000FFF7D2
:1020B000EDFF10BD70B505000C00080000F000FF3A
:1020C0000949200000F040FEFFF74CFC074B9C46FE
:1020D0006044800068602C75D0231B061B786B75EC
:1020E000A400034BE55070BDF923001040000034FC
:1020F000AC3000200A4B1A68EFF3108172B61368F7
:10210000002BFCD0BFF35F8F054B1B68BFF35F8FC5
:1021100000221A6081F3108840BF00200021704720
:10212000C832002010B5002922D003681B7B9942D9
:102130001ED8174B9C466144090183689C46614444
:102140000C684968002A19D003681B7B9A4215D88D
:1021500083680F488446624412019A1810685368D5
:10216000020001208B4201D80ED00020C0B210BD69
:10217000084B094A3C21094801F0F6FB054B064A89
:102180003C21064801F0F0FBA242EFD8EDE7C04643
:10219000FFFFFF0F1034011090360110BC33011007
:1021A00010B500291ED0037B99421BD84B005B1849
:1021B000033B0468A4466344002919D0002A1DD0BB
:1021C000914221D0002A25D0047BA24222D8046863
:1021D00050008018033820188170197800291FD109
:1021E0001A7010BD104B114A6821114801F0BCFB58
:1021F000104B114A6F310E4801F0B6FB0F4B0E4ADF
:1022000070210B4801F0B0FB0D4B0B4A71210848BF
:1022100001F0AAFB044B054A6821054801F0A4FB24
:1022200041701A70DDE7C04634340110FC360110ED
:1022300050340110B8340110D8360110C4340110E4
:10224000D034011070B506000D001400002914D020
:10225000002A14D0806873689847002806D02200AE
:1022600029003000FFF79CFF280007E02A0021002A
:102270003000FFF795FF200000E0100070BD08005F
:10228000FCE70000F0B583B00500009201930AABB3
:102290001C780BAB1F78002C26D003685A7B944225
:1022A00007D10123002B19D1002C3BD1200003B012
:1022B000F0BD002C0CD01A7B944209D81A68630038
:1022C0001B19033BD3189B78002BEBD00123E9E7C4
:1022D0003E4B3F4A68213F4801F046FB3E4B3F4A98
:1022E00067213F4801F040FB03689C7B002CDBD05A
:1022F00012D01A7B94420FD862001219033A19685F
:102300008C46624451789973002900D1D973002317
:10231000937053701370C7E72C4B2D4A68212D48DA
:1023200001F022FB002C3AD02B681B7B9C4236D854
:102330002C4BE3181B01AA6894466344009A1A6068
:10234000019A5A60089A9A60099ADA602E68002CFD
:102350002BD030D0337B9C422DD863001B19033B1C
:1023600032689446634400229A705A701A70717BE6
:1023700022003000FFF766FF7073844200D095E7BB
:10238000287D009A019B00F027FD061E01D0002F3A
:1023900017D00C9B002B00D188E71E7086E7124BEC
:1023A000124A3C210E4801F0DFFA114B114AA521D7
:1023B000084801F0D9FA054B054A6821054801F0A3
:1023C000D3FA2868210000F03FFFE2E7343401101F
:1023D000FC36011050340110E834011008370110A8
:1023E000BC330110FFFFFF0F1034011090360110B5
:1023F000B8330110EC360110F0B5DE4657464E46B4
:102400004546E0B58BB00990002308938200B54B98
:10241000D658370052E0B44BB44A3F21B44801F0DB
:10242000A3FAB44BB44A3C21B44801F09DFA002908
:1024300001D1002869D10021404600F0FBFEA042F6
:1024400019D12A686B6806920793AB689846EB68C7
:102450009A464346002B14D0002C18D03B681B7BB7
:102460009C4214D8631EFA68D35C08931B0218437D
:102470003861002015E0A24BA24A8E219F4801F04E
:1024800073FAA14B9F4A92219C4801F06DFA994B37
:102490009E4A4121994801F067FA00239A469846DE
:1024A00000207B68BFF35F8F00221A6086F31088DC
:1024B0004346002B32D1002800D10CE100F000FC93
:1024C00002000B1EA7DB0020002106900791786810
:1024D000EFF3108672B601680029FCD0BFF35F8F5E
:1024E000396888464C7B002CD7D09AD0097B8C4227
:1024F00097D8874965182D01B9688C4665442868C6
:102500006968801A9941002991DD2A686B680998E9
:1025100000F062FC00239A469846C2E7089B1B0223
:102520002343994651461800C04705000E007A68BB
:10253000EFF3108B72B6136859424B41D9B2002B9E
:10254000F9D1BFF35F8F002E1EDB002E46DD3B6905
:10255000002B47D04B456DD100F0B2FB02000B1EA3
:102560006EDB52197341002B70DB002B72DB0021F4
:102570000491013103910294514601914146009129
:102580003800FFF77FFE4CE03B69002BDDD04B4568
:1025900014D1069A079B521BB341002B14DB002B6E
:1025A00016DB0021049101310391029451460191FF
:1025B000414600913800FFF765FE32E0554B514A25
:1025C000A1214E4801F0D0F901225242524BE6E7D8
:1025D000454B464A3F21464801F0C6F9002E01D13D
:1025E000002DB4D13B68002C50D05A7B944237D197
:1025F000012100294AD1DA7B002A4DD19A7B002A99
:1026000003D1DA7B002A5AD19C73DC73002C5CD096
:102610003B681B7B9C4258D8FA68013C135D013330
:10262000135500233B617A68BFF35F8F13608BF310
:10263000108843E7374B334AA421304801F094F91E
:10264000294B2A4A3F212A4801F08EF901225242A1
:10265000314B8AE7244B254A3F21254801F084F974
:10266000002C0DD01A7B94420AD862001219033A4A
:102670001868844662449278002ABAD00121B8E7EB
:10268000264B274A6821274801F06EF9264B274A36
:10269000F621244801F068F9002A0AD0197B8A4201
:1026A00007D851008A18033A19688C46624454705E
:1026B000A4E71A4B1A4A68211A4801F055F91C4B35
:1026C0001A4AFB21174801F04FF90A4B0F4A4121E2
:1026D0000A4801F049F90BB0F0BCBB46B246A94626
:1026E000A046F0BDAC300020B43201105C360110C1
:1026F000D03201101034011090360110BC3301109B
:10270000103501107436011028350110B43601104F
:10271000FFFFFF0F34350110FFFFFF7F343401103E
:10272000FC3601105034011070350110C83601100C
:102730009435011010B50C4B5B68002B04D00A21B6
:102740000A48FFF77FFC10BD074C2300084A102100
:10275000206800F07FFC032000F0A6FA032120008F
:10276000FFF7A8FCEBE7C046B41B0020C8320020EE
:102770002521001010B5064B5B68002B01D00448E2
:1027800010BD044B044A5E21044801F0EDF8C04638
:10279000B41B0020A83501109C360110BC33011079
:1027A000F0B5DE4657464E464546E0B58BB080460E
:1027B00016001F00149B9A46159B994616AB1B7872
:1027C0009B461F2302AA9446634400221A702BE002
:1027D000002809D042461268127B904204D8421E5B
:1027E0004146C9688A5C41E0404B414A4121414829
:1027F00001F0BAF807984CE0361BAF41002F07DB19
:10280000002F11DA3C4B3D4A3F213D4801F0ACF826
:10281000012676423B4FF3E7374B384A3F21384891
:1028200001F0A2F8002F4FDB43465A68EFF3108403
:1028300072B6136859424B41D9B20791002BF8D1B7
:10284000BFF35F8F1F3302AA9446634404930023AF
:10285000039302934B4601935346009332003B008F
:102860004046FFF70FFD031EB2D102004146496802
:10287000BFF35F8F00250D6084F31088002B29D0F3
:102880001F2302A98C4663441B78002BB2D112028D
:102890001043002B20D05B46002B1DD04946D0476B
:1028A00004000D0003000B431DD00029A4DB00F041
:1028B00007FA06000F1EAFDB36196F41002FB1DAA1
:1028C000012676420F4FADE70B4B0C4A3F210C48D7
:1028D00001F04AF8012040420BB0F0BCBB46B246C2
:1028E000A946A046F0BD0798F6E7C046103401108F
:1028F000B4360110BC330110B43201105C36011043
:10290000D0320110FFFFFF7FF8B50400002900D18D
:1029100062E04268EFF3108572B613685842434193
:10292000D8B2002BF9D1BFF35F8FCBB22268567BB0
:10293000B3421BD10120002848D0206988422BD007
:10294000090AC9B2002B2ED02068007B83422AD806
:10295000581EE668305C88422BD000206368BFF3C5
:102960005F8F00221A6085F31088F8BD002B0DD010
:10297000167BB3420AD85E00F618033E1768BC46C1
:102980006644B678002ED6D00120D4E7134B144A03
:102990006821144800F0E8FF2C21134B134AFF3143
:1029A000134800F0E1FF134B134A4121104800F097
:1029B000DBFF1900100000F047FC0028CED1992160
:1029C0000E4B0A4A49000A4800F0CEFF23698B42A9
:1029D000C4D100232361C1E70020C6E734340110CD
:1029E000FC36011050340110CC3501104436011072
:1029F000BC33011010340110B4360110F035011051
:102A0000407D7047F0B587B006000F00EFF30583F7
:102A1000002B1FD106246442E517A4197D418D4285
:102A200002D803D1844201D900240025002D14DBF3
:102A30000494059500F044F902000B1E13DBA41A60
:102A40009D41002D17DC14D03000390000F044F90E
:102A500007B0F0BD234801F021F8234B234A3F2162
:102A6000234800F081FF204B204A3F21204800F0FE
:102A70007BFF002CE8D0FFF77DFE0023029301933B
:102A80001C4B0093049A059BFFF78AFE002818DA76
:102A9000DAE7002300E00023002BD5D1164B1A689B
:102AA000EFF3108172B61368002BFCD0BFF35F8F79
:102AB000114B1B68BFF35F8F00221A6081F31088EF
:102AC00020BF0499059A0D4B5B6A9A42E3D80B48E4
:102AD000806A884203D29A42DBD00123DCE70123DB
:102AE000DAE7C046F4350110B43201105C3601104B
:102AF000D0320110F5200010C832002000400540FF
:102B000070B504000D0000F0DBF802000B1E0ADBBC
:102B1000200029008018594100290ADB00290CDB1C
:102B2000FFF770FF70BD084B084A3F21084800F0CE
:102B30001BFF012040420749F0E7034B034A3F21B6
:102B4000034800F011FFC046B43201105C3601109A
:102B5000D0320110FFFFFF7F10B5FA229200002350
:102B6000002103F017FCFFF7CBFF10BD70B584B058
:102B700005000C00EFF30583002B1ED1FFF7FAFDD3
:102B8000002302930193224B00932A002300FFF7B6
:102B900007FE061E23DD20BFFFF7ECFD3100FFF727
:102BA000B3FE1C4B5B6A9C422DD81A4A926AAA4219
:102BB0002CD29C4225D0012026E0164B5B6A99421C
:102BC00009D8144A926A824207D2994201D0012060
:102BD0001AE0002018E0002016E0012014E00D4B60
:102BE0005B6A9C4209D80B4A926AAA4207D29C426D
:102BF00001D0012008E0002006E0002004E00120D0
:102C000002E0002000E0002004B070BD0120FBE7DE
:102C1000F52000100040054070B5EFF30580103836
:102C2000EFF3108C72B61A4B1B68002BFBD0BFF36E
:102C30005F8F01221300834016494B6316490B60D6
:102C4000164909780C00C440224214D0114A546A33
:102C50008200134D5259944206D38200114C1259EE
:102C600099430E4B197007E00A4A031D9B009958BF
:102C70009950002200E00022BFF35F8F044B002137
:102C800019608CF31088002A00D0904770BDC046B0
:102C9000280100D0004005403C700540063300206C
:102CA000D4320020D42A002010B50100024A034883
:102CB000FEF706FE10BDC046283701100133002084
:102CC000044B5B6A034A906A1900536A9942F9D12E
:102CD0007047C04600400540084B5B6A01E0074B67
:102CE0005B6A8B42FBD301E0044B5B6A8B4203D1EE
:102CF000024B9B6A8342F7D37047C04600400540B1
:102D000070B504000D00FFF7DBFF02000B00200090
:102D10002900801859418B4202D804D1824202D93D
:102D200001204042C117002902DBFFF7D5FF70BD2B
:102D3000024B034A3F21034800F016FEB432011053
:102D4000EC370110D032011070B504000D00EFF324
:102D5000108672B61B4B1B68002BFBD0BFF35F8F36
:102D6000002D1CD02000FEF79FFE174B83420BD096
:102D700019002000FEF7B2FE01212000FEF784FEBC
:102D80000123A340114A1360A400114BE550BFF387
:102D90005F8F0C4B00221A6086F3108870BDA20072
:102DA0000B4B0021D1500122A2400A490B789343DA
:102DB0000B7005492000FEF7D5FF00212000FEF72B
:102DC00063FEE4E7280100D0192C001038600540AC
:102DD000D42A002006330020F0B5DE4600B584B0CA
:102DE0000400150001921E000293FFF769FF03958E
:102DF0008E4202D84ED185424CD9EFF3108B72B679
:102E0000274B1B68002BFBD0BFF35F8F254A177839
:102E10000125A540EBB23B431370234B5D63221D9C
:102E200092000199D150A2002049029850501B6A8B
:102E30002B4212D11C4B1B6C2B4208D00020BFF33D
:102E40005F8F174B00221A608BF3108823E0184B1A
:102E5000184AC521184800F087FDFFF731FF8E4260
:102E600014D802D1039B834210D80E4B1B78BB426F
:102E70000ED00D4B1D625D631F2004400123A34053
:102E80000E4A1360074B1F701E38D8E70020D6E7A4
:102E90000120D4E7012004B080BCBB46F0BDC04691
:102EA000280100D00633002000400540D432002025
:102EB0004C370110D03701107037011080E200E06C
:102EC000EFF3108C72B60B4B1B68002BFBD0BFF3DB
:102ED0005F8F01238340084A136208490A789A43A6
:102EE0000A70BFF35F8F034B00221A608CF31088C7
:102EF0007047C046280100D000400540063300203E
:102F000010B500291ED0037B99421BD84B005B18DB
:102F1000033B0468A4466344002919D0002A1DD04D
:102F2000914221D0002A25D0047BA24222D80468F5
:102F300050008018033820188170197800291FD19B
:102F40001A7010BD104B114A6821114800F00CFD99
:102F5000104B114A6F310E4800F006FD0F4B0E4A20
:102F600070210B4800F000FD0D4B0B4A7121084801
:102F700000F0FAFC044B054A6821054800F0F4FC17
:102F800041701A70DDE7C046343401100C3901106D
:102F900050340110B8340110F8380110C434011055
:102FA000D034011070B506000D001400002914D0B3
:102FB000002A14D0806873689847002806D0220041
:102FC00029003000FFF79CFF280007E02A002100BD
:102FD0003000FFF795FF200000E0100070BD0800F2
:102FE000FCE7000010B50023437301338373037BB8
:102FF000C3730123027B9A4214D9002B0CD0027BAD
:10300000934209D85A00D218033A01688C466244A8
:103010000133DBB25370EDE70B4B0C4A68210C48CF
:1030200000F0A2FC002A09D0924207D801685300A0
:103030009A18033A8A180023537010BD024B034AB2
:103040006821034800F090FC343401100C39011061
:103050005034011010B5017342608360FFF7C2FF66
:1030600010BD000070B50400081E00D170BD00291D
:1030700034D0237B994231D84B005B18033B226844
:10308000944663445A78002AF0D02DD0237B9A428C
:103090002AD853009B18033B21688C4663445D7813
:1030A00000215970002825D0237B984222D8430064
:1030B0001B18033B21688C466344002159700100B2
:1030C0002000FFF76FFF060029002000FFF7CAFF6E
:1030D000020031002000FFF765FFC7E7084B094AEF
:1030E0006821094800F040FC054B064A6821064863
:1030F00000F03AFC024B034A6821034800F034FC1C
:10310000343401100C3901105034011070B5050031
:103110000C00160000292FD034D0037B994231D8FF
:103120004B005B18033B0268944663445A78002ABC
:103130002ED19A78002A31D11978FFF793FF030036
:10314000002E0AD0EA7B002A2ED1AA7B002A03D1C6
:10315000EA7B002A3BD1AC73EC73002B3DD1002CF1
:103160004FD02B7B9C424CD82B6861000C19033C40
:103170001C190023637070BD254B264A3821264850
:1031800000F0F2FB254B264A6821264800F0ECFBB4
:10319000254B204A3A21204800F0E6FB234B1D4AEC
:1031A0003B211D4800F0E0FB002A0AD0297B8A421F
:1031B00007D851008A18033A29688C466244547033
:1031C000C3E7164B164A6821164800F0CDFB184B92
:1031D000104A4221104800F0C7FB002B0BD02A7B7D
:1031E000934208D843001B18033B2A689446634463
:1031F00000229A70B3E7094B094A6821094800F098
:10320000B3FB064B064A6821064800F0ADFBC046FA
:1032100004380110E43801100C3801103434011066
:103220000C39011050340110603801108838011039
:103230009435011070B504000A00457B2900FFF7A2
:1032400065FF6073280070BD70B50400002967D069
:10325000437B8B420ED0002911D0037B99420ED8BC
:103260004B005B18033B0268D0188378002B0CD10D
:10327000002056E00121FFF7DDFF012051E0294B3E
:10328000294A6821294800F06FFB002B20D0227BBF
:1032900093421DD85A00D318033B2268D2182568E0
:1032A000EB5C8B421AD0002B1BD0227B934218D8A8
:1032B0005A00D318033B2268D21853788B4216D099
:1032C000002BF0D11A4B1B4A6B211B4800F04CFB22
:1032D000144B154A6821154800F046FB43781370DB
:1032E00007E0104B104A6821104800F03DFB43787E
:1032F000537000238370437001222000FFF706FF04
:103300000200617B814205D02000FFF74BFE607315
:10331000012006E0094B074A7121074800F024FB11
:10332000002070BD343401100C39011050340110EC
:1033300088310110CC3801100C380110AC38011064
:1033400070B5046BE30701D4200070BD0200303279
:10335000C0239B0113430A4A1A60456A826AAD0181
:10336000AD18AD02062000F0BDF9064901F0C2FC1F
:103370000100280001F0BEFC0021FFF7C1FCE3E7DB
:10338000010300004E0E000070B504000E00150091
:10339000FFF7D6FF22002C32E16A4E4035408023F1
:1033A0005B0113431D60206370BD000070B5050014
:1033B0000C00062000F096F9C000210001F09AFCF4
:1033C000C60908D00E4B9E4216D87F231840013004
:1033D0003400460800E001246C62AE620022002145
:1033E0002800FFF7D1FF062000F07CF98000A10142
:1033F000891901F07FFC70BD0026024CECE7C04645
:10340000FEFF0000FFFF000010B505394901013A39
:10341000D2001143002B09D002220A43012B07D00E
:10342000002111436E22FFF7AFFF10BD0022F4E729
:103430000421F6E7002909D00A22064B9C46604485
:10344000434258414000044BC25270478022520010
:10345000F3E7C0460080FCBFE432002070B50500F1
:103460000C00062000F03EF9061E27D0164B9D42A8
:1034700026D08022D203154B1A60154B1A60154BCB
:103480009B6811009943FAD100212800FFF7D2FF71
:1034900021002800FFF78AFF0600002301220821EF
:1034A0002800FFF7B1FF2A002C3280239B01134331
:1034B00010221A60084B2B630323AB64300070BDED
:1034C00080221204D7E7C0460080034000E000409D
:1034D00000F0004000C0004001030000F8B5DE46E7
:1034E00057464E464546E0B505000F0092460A9AFB
:1034F000934250D31A0E91461E020A9A00233000BE
:10350000494601F035FC80466C006419A400304B3C
:103510009C4664446368834200D260602B1FDBB228
:103520009B46012B3DD9C0239B01234380221201DE
:103530001A60AB00274A9958002907D0506901F05A
:10354000D9FB431C5800C0180338FDD253465A011A
:1035500023685A40E0231A4080235B0123431A600A
:103560005A46012A28D980239B0123438022120135
:103570001A6043466360424600233000494601F02A
:10358000F7FBAD00134B58510120F0BCBB46B246CF
:10359000A946A046F8BD104B104A3321104800F050
:1035A000E3F9012FBFD1C0239B01234303221A60FB
:1035B000A368DB07FCD5C9E72168794003220A40EC
:1035C0001A60A2680123BB401342FAD0CBE7C04681
:1035D00000800040F82B0020183901108C390110B0
:1035E0002C39011030B583B00C2000F011F9FEF732
:1035F00047F900280DD0002304E099002D4A2E48F9
:1036000088500133092BF8D92A4B2C4A5A6203B04F
:1036100030BD2B4B00229A6700F06CF9294B012238
:103620001A60274B5B6C012BFBD1274B03221A60DE
:10363000234B9B6B012BFBD1013300930433234AB3
:103640000121234800F054F805230093214A012169
:10365000214800F04DF8214B009300220221042064
:10366000FFF73CFF1E4D00952B0000220121052095
:10367000FFF734FF104C00942300002200210720A4
:10368000FFF72CFF00942300002200210820FFF701
:1036900025FF0A4B00932300002200210920FFF799
:1036A0001DFF00952B00002200210620FFF716FFCA
:1036B000ADE7C046F82B0020006CDC021BB7000011
:1036C000008000403CB0004030B00040002F6859FE
:1036D00000800240008C864700C00240001BB700FB
:1036E000405973078000014BC0587047F82B0020E9
:1036F000F0B5C64600B504000E0017001D0037489F
:1037000001F0F8FA8046364BFA18364B9A4239D80F
:103710000100380001F0EEFA0200103A98235B0035
:103720009A4235D86B1E062B38D8069B013B062BD8
:1037300034D83F09474537D32D04069B1A03154358
:103740002368002B36DB284B9C4244D08022520158
:10375000264B1A60264B1A60264B9B681100994332
:10376000FAD12660A060231DC02292011A432123B2
:1037700013602368002BFCDAE5600823136080BC2B
:10378000B846F0BD1C4B1D4A11211D4800F0ECF855
:103790001C4B1A4A19211A4800F0E6F81A4B174A2E
:1037A0001C21174800F0E0F8184B144A2321144854
:1037B00000F0DAF822683F231340B342C3D1A36874
:1037C0001B051B0D8342BED1E368EE22D2021340DB
:1037D000AB42B8D1D3E780229201B9E7001BB70012
:1037E00080E84BD380F8A93200C0024000E00040DE
:1037F00000F0004000C000409C390110DC3A01108C
:10380000FC390110583A0110743A0110C03A011005
:1038100080239B000343014AD36270470080054028
:10382000024B1A68024B5A607047C0469C30002019
:103830000080054010B50200164B8020C0051860BE
:10384000154B1648186000290AD0154BE021C90411
:103850001960002A09D1124B802212061A6010BD8D
:103860000C4BE021C9041960F3E753019B1A98003F
:10387000801800010B4B186080235B04984202D330
:10388000084B094A1A60FFF7CBFF054B8022D2058F
:103890001A60E4E700B0054008200140FCFF010089
:1038A00000A005409C300020FFFFFF0010B5030082
:1038B00010000C4A8024E4051460002B0DD0012276
:1038C0001343094A094CD461094C5C4014625162AB
:1038D00093620021FFF7AEFF10BD034B0022DA61B7
:1038E000F7E7C04600B0054000800540D3C007B0F0
:1038F0002D3FF84F064BAA2212011A602F22DA60E0
:10390000044B054A1A60024B5B68002BFBDA7047D8
:10391000004002400060024000B0FA0000BEFDE737
:1039200003000A4A1268002A08D0084A1068C3181F
:10393000074A9A4206D3054A13607047034A05496D
:103940001160F2E701204042F7E7C046982C0020C2
:10395000000004200833002000207047012040426E
:10396000704710B5FFF7DAFF10B582B00C001900F0
:10397000002A0CD0084B002A0BD0019200932300A0
:103980000200064803F0B4F90120FFF7C7FF044B1B
:10399000F1E7034AF1E7C046E83A0110F83A0110AE
:1039A000E02E011070B52B4B2B4A1A602B4B2C4A82
:1039B0001A602C4B9A682A4B9343FAD12A4C01E0A7
:1039C00008CC9847294B9C42FAD3FFF70BFE234BB8
:1039D000274A1A60234B9B68DB43DB01FAD1254B56
:1039E00040229A675A671A67DA66234C09E0234B2C
:1039F000234A87212348FFF7B7FF2000FEF72AFB61
:103A00000834214B9C4209D22368002BF5D0012BAE
:103A1000EDD12000FEF72BFB0834F2E71B4CA16828
:103A20001B4DC022280002F095FFA560EFF305832F
:103A3000002B00D000BEFDF785FFFEF7E1FAFEF790
:103A400079FE144C01E008CC9847134B9C42FAD302
:103A500070BDC04600E00040BFCDFBFE00F000405E
:103A6000FE7F3C0000C00040A8240020B8240020B5
:103A7000FFFFFF0100F00140A0240020283B0110BF
:103A8000B83B0110483B0110A824002000ED00E0E5
:103A900000000020B8240020C42400200FB400B58A
:103AA00083B0084803F0F4F8049B002B07D005A965
:103AB0000191180003F0FCF8034803F0E9F8012035
:103AC000FFF72CFFA83B0110404901109A4200D299
:103AD00088547047704710B5002802D00B684968B9
:103AE000984710BD0100002007E083001B185B0011
:103AF000501C08601078C01830380A681378303BC2
:103B0000DBB2092BF1D97047F0B5DE4657464E4679
:103B10004546E0B583B093461F000C9B9A460D9C2A
:103B20000E9B99460F9B9B0703D0B8460F000600DB
:103B300022E00192A34688464E46B9460700B442A9
:103B400007D2551C4B4641462020B84701342A0075
:103B5000F5E73D004F465C46019B9B46B146464615
:103B6000B84637002E0007E0013C551C5346185D4F
:103B700043463900B0472A00002CF5D135003E00FD
:103B800047460F9B9B0707D4100003B0F0BCBB4611
:103B9000B246A946A046F0BDB0464E46B9462F00F3
:103BA0005D46531BB342EFD2541C4B464146202086
:103BB000B8472200F5E7F0B5CE46474680B585B058
:103BC000944698460C9D0D9C0EAB1B789946109A16
:103BD000119B129EB7071CD4002B0CD0F7070AD5F7
:103BE0004F46002F02D10C37374204D0013B02E090
:103BF00030272F550134944201D21F2CF8D9F707F2
:103C000007D59C4205D21F2C03D830272F550134ED
:103C1000F5E7F70615D5770505D4002C03D09442B7
:103C200024D09C4222D00F9A102A2BD00F9A102A0F
:103C300030D00F9A022A35D01F2C02D830222A55B4
:103C400001341F2C05D84A46002A31D02D222A558E
:103C50000134039602930194009543466246FFF7B0
:103C600053FF05B0C0BCB946B046F0BD621E012C82
:103C700006D00F9F102F01D01400D4E7023CD2E7EA
:103C80001400D0E7B206D1D41F2CCFD878222A5501
:103C90000134D1E7B206CCD51F2CCAD858222A55F8
:103CA0000134C9E71F2CC7D860322A550134C3E755
:103CB000720703D52B222A550134CAE73207C8D52B
:103CC00020222A550134C4E7F0B5DE4657464E4659
:103CD0004546E0B593B081468A46089209931CABED
:103CE00010CB1B789B461E9D219B9846002C03D130
:103CF000102342469A4390468023DB0046461E40EE
:103D000042461A4212D0002C22D000260EE0303358
:103D1000D9B2771C0AAB99552900200000F0EAFFC0
:103D2000AC4216D31F2F14D83E00040029002000F7
:103D300000F0E0FFCBB2092BE9D94246920605D547
:103D40004121C918C9B20A39C9B2E2E76121F8E7CD
:103D5000270043460693209B05931F9B04930395DE
:103D60005B46029301970AAB0093099B089A514660
:103D70004846FFF720FF13B0F0BCBB46B246A94649
:103D8000A046F0BDF0B5DE4657464E464546E0B586
:103D900095B0089009910A920B931E9E1F9C20AB30
:103DA0001B789B46229B9946239D269B9A4633006F
:103DB000234303D1103352469A4392468023DB00BB
:103DC00057461F4052461A4219D0330023432DD084
:103DD000002714E03033DAB27B1C98460CABDA557E
:103DE0004A462B003000210000F0C2FFA5421FD838
:103DF00019D043461F2B1BD8474606000C004A46E5
:103E00002B003000210000F0B3FFD3B2092BE1D921
:103E10005246920605D54122D218D2B20A3AD2B2FF
:103E2000DAE76122F8E7B145E3D901E000239846DB
:103E300053460693259B0593249B04934B4603937B
:103E40005B460293434601930CAB00930B9B0A9A8B
:103E500009990898FFF7AFFE15B0F0BCBB46B24613
:103E6000A946A046F0BD0000F0B5DE4657464E46D6
:103E70004546E0B591B083468A460C9298461A9C16
:103E800008941B9D099522002B002000290001F0B9
:103E900006FA002800D0E5E001225242D74B20006C
:103EA000290001F0F7F9002800D0DBE0012252429E
:103EB000D34B2000290001F0D7F9002800D0D1E031
:103EC00000220023089E3000099D290001F0CCF952
:103ED000002800D0DDE0089809990690079180231A
:103EE000DB001E9A1A400D921E9A1A4201D1062337
:103EF0001C930698079904000D000A00060002436F
:103F000000D1D1E0080D4005400DBE4CA4466044F0
:103F10000A03120BBC4B13431F0001F0D3F9BB4A39
:103F2000BB4B01F05EF9BB4ABB4B01F033F9040017
:103F30000D000022B94B3000390001F022F9B84AD7
:103F4000B84B01F04EF902000B002000290001F0EF
:103F500021F901F0CFF9814601F0B4F904000D0018
:103F6000B14AB24B01F03DF90022B14B01F012F918
:103F700001F0C0F90600AF4AAF4B2000290001F064
:103F800030F904000D00300001F09CF9AB4AAC4B55
:103F900001F027F902000B002000290001F0F1F8E0
:103FA00004000D0002000B0001F01BF90A900B91B8
:103FB000A44BF31800261F0522002B002000290027
:103FC00001F0E8F80E900F9122002B0000208021D4
:103FD000C90501F0D6F804000D0000229A4B0A989A
:103FE0000B9901F0E0F80022984B01F0D3F80200A1
:103FF0000B000A980B9901F0D6F80022944B01F0BF
:10400000C9F802000B000A980B9901F0CCF80200E5
:104010000B002000290001F0BDF802000B000E98F3
:104020000F9901F0C0F80022774B01F0B3F832008D
:104030003B0001F0D6F806000F0004000D00069AC0
:10404000079B01F027F9002830D001235B429C46F2
:10405000E14400227D4B3000390001F0A4F8040057
:104060000D0023E01E9B04931D9B03931C9B029356
:10407000089A099B0092019343460C9A5146584670
:1040800000F0FCF811B0F0BCBB46B246A946A04611
:10409000F0BD0023002406930794069680231B0698
:1040A0009C46654407951AE7002399464B466333BF
:1040B000C62B1ED804261E9B1B0526D52B0023438A
:1040C0000FD0644A644B0698079901F0DBF800288A
:1040D00079D00022614B0698079901F0C5F80028B5
:1040E00071D01C9B4B4506DD4A46981A431E1C9313
:1040F00003E00526DFE700231C938023DB001E9AE4
:104100001A431E920026002399461D9B9E4264D2AC
:104110009F1B02231E9A1A400A921E9A134202D033
:10412000002E00D000274B46002B07D022002B008A
:104130000698079901F037F80690079100220023AE
:104140000898099901F090F8002848D1444B1E9A2C
:104150001340049303971C9B0293069B079C0093B8
:10416000019443460C9A5146584600F087F8002EB9
:1041700000D187E71E9B9B063DD54525441C434641
:10418000020051462800D8474B46DA179B18534087
:1041900005220592013E0496002203920A32029201
:1041A0004A46D00F0190009343462200514658469C
:1041B000FFF78AFD0A9B002B00D163E702005F46F0
:1041C0000C9E1D9D54E01C9B002B9ED00D9B002B34
:1041D0009BD01C9B013B1C9397E7002799E7069C0B
:1041E000079D2200290080200006844661440B00C0
:1041F00006920793AAE76525C0E7C046FFFFEF7F59
:10420000FFFFEFFF01FCFFFF0000F03FFB799F5035
:104210001344D33FB3C8608B288AC63F0000F83FE1
:1042200061436F63A787D23F71A379094F930A4017
:104230000000E03F1655B5BBB16B0240EF39FAFE06
:10424000422EE63FFF03000000002C400000244007
:10425000000018402D431CEBE2361A3F80842E41AB
:10426000FFF7FFFF541C434651462020B847220069
:10427000931BAB42F6D3100004E7C046F0B5DE4610
:1042800057464E464546E0B595B006900791934691
:104290009946209F1E9A1F9B1000190000F0FFFFF7
:1042A000002831D101225242BF4B1E981F9900F0C5
:1042B000DBFF002837D101225242BC4B1E981F99C8
:1042C00000F0E8FF00283DD10022B94B1E981F994D
:1042D00000F0E0FF002850D10022B64B1E981F9935
:1042E00000F0C2FF002848D1002200231E981F9929
:1042F00000F0BAFF002850D100239846229B5B05AE
:1043000000D4B6E0002458E0229B0393219B029343
:1043100003230193A84B00934B465A4607990698EE
:10432000FFF7F2FB0EE1229B0393219B02930423F0
:104330000193A24B00934B465A4607990698FFF704
:10434000E3FBFFE00423229A1A4022990B4210D08B
:104350009B4B002A0FD004222299039121990291AC
:10436000019200934B465A4607990698FFF7CCFBFB
:10437000E8E0944BEDE70322EEE7229B0493219BB8
:10438000039302971E9B1F9C009301944B465A4631
:1043900007990698FFF768FDD4E01E9A1F9B00203E
:1043A000002100F0EEFE1E901F9101239846A5E724
:1043B0000CAB30221A55013F01341F2C01D8092FB4
:1043C000F6D81E981F9900F095FF050000F07AFFBF
:1043D00002000B001E981F9900F0D3FEFA007A4BE2
:1043E0009B181A685B680A920B9300F0FAFE08901B
:1043F000099100F0A3FF060000F060FF02000B002F
:104400000898099900F0BDFE0890099100226F4BB1
:1044100000F040FF00282ED00136300000F04EFFA3
:1044200002000B000A980B9900F024FF002801D02D
:1044300001350026002F2CD1280000F043FF020098
:104440000B001E981F9900F09CFE06000F00002232
:104450005E4B00F009FF002846D100225B4B300084
:10446000390000F017FF00283ED1EB073CD501359D
:104470003AE0062746E70022544B0898099900F0D5
:10448000F3FE0028D6D1002E01D0F307D2D5013695
:10449000D0E7AA461F2C11D8013F0A21300000F0B6
:1044A00029FC651C30310CAB19550A21300000F095
:1044B00021FC092E0ED906002C00EBE755461F2CD7
:1044C0000CD87B1E002F09D00CAA302111551F00DB
:1044D0000134F4E72B0055461C00F0E71F2C03D8ED
:1044E0000CAB2E221A5501341F2C10D80A2128009B
:1044F00000F0D8FB661C30310CAB19550A2128009E
:1045000000F0D0FB051E01D03400EDE7340003239A
:10451000229A1340012B1CD01F2C06D84346002B97
:1045200032D00CAB2D221A550134229B0393219BD0
:10453000029301940CAB00934B465A460799069898
:10454000FFF7E2FA15B0F0BCBB46B246A946A0465A
:10455000F0BD219B002B13D04346002B02D10C331E
:1045600013420FD0219B013B2193190003E00CABB8
:1045700030221A5501348C42CED21F2CF7D9CBE70A
:104580002199F8E72199F6E7229B5B0704D50CAB4C
:104590002B221A550134C8E7229B1B07C5D50CAB4B
:1045A00020221A550134C0E7FFFFEFFFFFFFEF7F26
:1045B00065CDCD4165CDCDC1D43B0110D83B0110B7
:1045C000CC3B0110C83B0110C03D01100000E03F92
:1045D000F0B5DE4657464E464546E0B593B08246B6
:1045E0008B4690461193002900D1EBE200275546F7
:1045F000119B1878002800D1E7E2252809D07C1CFF
:1046000043463A005946A847119B013311932700AE
:10461000EEE7013311930024119A11780B00203B2F
:10462000D8B2102803D88300D048C3589F460B0047
:10463000303BDBB2092B2CD92A292FD000230A9337
:10464000119B1A782E2A39D000239A46119A137892
:10465000683BD9B2122976D88B00C549CB589F4602
:1046600001231C4301321192D6E702231C4301327D
:104670001192D1E704231C4301321192CCE70823A5
:104680001C4301321192C7E710231C4301321192DF
:10469000C2E711A8FFF726FA0A90D1E71C9B1A1D62
:1046A0001C921868002804DB0A90119B01331193B7
:1046B000C6E702231C4343420A93F6E78022D20056
:1046C00014435A1C11925A781300303BDBB2092B69
:1046D00004D92A2A07D000239A46B7E711A8FFF782
:1046E00001FA8246B2E71C9B1A1D1C92186800282A
:1046F00004DB8246119B01331193A7E70020F8E702
:1047000080235B002343511C119152786C2A01D005
:104710001C0018E0C0239B001C430131119112E0E2
:1047200080232343511C11915278682A01D01C0028
:1047300009E0C0231C430131119104E080235B0098
:104740001C4301321192119B18780300253BDAB209
:10475000532A00D92CE29300864AD3589F468023DF
:104760009B001C4301321192EDE780235B001C4348
:1047700001321192E7E7782809D0582838D06F28FD
:1047800038D0622838D010239C430A2600E0102637
:10479000582833D0692803D0642801D00C229443D0
:1047A000630501D50122944369282AD0642828D0C2
:1047B000A30500D59FE0E30500D5B8E0630600D46B
:1047C000CAE01C9A111D1C911168FF220A40059431
:1047D0000A9B04935346039302960023019300928D
:1047E00043463A0059462800FFF76EFA070027E0D3
:1047F0001026CDE70826CBE70226C9E7202214437E
:10480000C8E7A30520D4E30550D4630666D51C9AF7
:10481000111D1C911168FF220A40D317D11859406D
:1048200005940A9B0493534603930296D20F019278
:10483000009143463A0059462800FFF745FA070021
:10484000119B01331193D3E61C9BDA1D07218A4388
:10485000110008311C91116853689C46DB170C93BA
:104860000D930C9A0D9B100048400E9062465340E9
:104870000F930E980F990C9A0D9B801A99410E90E8
:104880000F9108940A9B07935346069304960023BE
:1048900005936346DA0F02920090019143463A0075
:1048A00059462800FFF76EFA0700C9E71C9A111D48
:1048B0001C911268D317D118594005940A9B049390
:1048C000534603930296D20F0192009143463A0059
:1048D00059462800FFF7F8F90700B1E7230605D588
:1048E0001C9A111D1C910023D25E96E71C9A111D83
:1048F0001C91126891E71C9BDA1D07218A43110065
:1049000008311C9108940A9B07935346069304961A
:10491000002305930293136854680093019443465F
:104920003A0059462800FFF72DFA070088E71C9A3D
:10493000111D1C9105940A9B049353460393029600
:10494000002301931368009343463A005946280018
:10495000FFF7BAF9070073E723060DD51C9A111D5E
:104960001C9112681204120C31E7C046E03B0110A2
:10497000243C0110703C01101C9A111D1C911268FE
:1049800025E746281AD01C9B0733072293431A00B9
:1049900008321C9204940A9A0392524602925C686E
:1049A0001B680093019443463A0059462800FFF7DC
:1049B00065FC0700119B0133119319E620231C436A
:1049C000E1E7672801D0472802D180231B011C435F
:1049D000452801D0472801D120231C431C9B0733C5
:1049E000072293431A0008321C9204940A9A0392F5
:1049F000524602925C681B680093019443463A0059
:104A000059462800FFF730FA0700119B0133119334
:104A1000EEE502231A002240924623421FD00124D1
:104A20001C9B1A1D1C927A1C9146187843463A002A
:104A30005946A8475346002B16D1119B01331193B9
:104A40004F46D5E5561C434659462020B84723001B
:104A500032005C1C9D42F5D83D001700E0E70123C1
:104A60003A002F000A9DF4E74A46A9460A9D06E04F
:104A7000571C434659462020C84734003A00661C5C
:104A8000A542F5D84D469146D7E71C9B1A1D1C92AE
:104A90001B6899465346002B00D1013B4E4601E06E
:104AA000013613003278002A02D05A1E002BF7D1AB
:104AB0004B46F21A10928023DB0026001E401C4257
:104AC00003D0524501D95346109302231A002240C5
:104AD0000B92234205D03A0037004C46A946554672
:104AE00020E03A00109B5F46B3462E0006E0551CBE
:104AF000434639002020B04723002A005C1C0A9955
:104B00009942F4D835005E46BB46109437004C46B7
:104B1000A946554606E01D000134561C4346594639
:104B2000C84732002078002804D0002FF4D06B1E34
:104B3000002DF0D117004D460B9B002B03D1119B8C
:104B40000133119354E50A9F109B06E0561C43461F
:104B500059462020A847230032005C1C9F42F5D80C
:104B60001700ECE721231C431C9B1A1D1C921B6899
:104B70000093059408230493534603931023029350
:104B80000023019343463A0059462800FFF79CF85A
:104B90000700119B013311932AE57C1C43463A0020
:104BA00059462520A847119B0133119327001FE583
:104BB0007C1C43463A005946A847119B0133119388
:104BC000270015E50A4B9A4610E5AA46474502D349
:104BD00043465A1E00E03A00434659460020D0475B
:104BE000380013B0F0BCBB46B246A946A046F0BDA3
:104BF000D53A00100EB410B585B0010007AC08CC52
:104C000003940122009452420348FFF7E1FC05B0EF
:104C100010BC08BC03B01847CD3A001000B585B0F1
:104C2000029003910121009313004A4202A9024815
:104C3000FFF7CEFC05B000BDD73A001001480421B3
:104C4000014B1847E01B00206D4C001010B501000F
:104C500018231B8814221088984710BD10B5010036
:104C600018231B8816221088984710BDF0B5C64639
:104C700000B507000E0000250123984600E001352D
:104C8000B5420AD2AC003C192068FFF7DFFF206074
:104C90000028F4D100239846F1E7404680BCB8468E
:104CA000F0BD0000124A936F9B0815D29066D16642
:104CB000002905D0FFE7FFE7FFE7516F106F70474E
:104CC00004B580210906C2175140002800D0C8430E
:104CD0000EF04AF8002104BDF0B5146E556E576F02
:104CE000166FFFF7E3FF1466556657671667F0BD4A
:104CF000000000D0114A936F9B0813D210665166D2
:104D0000002905D0FFE7FFE7FFE7516F106F7047FD
:104D100004B5002801D00020C0430EF025F8002182
:104D200004BDC046F0B5146E556E576F166FFFF791
:104D3000E5FF1466556657671667F0BD000000D0A2
:104D400094464A4A926F9208624601D228E0C046D1
:104D5000F0B5464E346E756E776F366F00F020F802
:104D60009446424A14665566576716676246F0BD18
:104D700094463E4A926F9208624601D254E0C04681
:104D8000F0B53A4E346E756E776F366F00F04CF8B2
:104D90009446364A14665566576716676246F0BDF4
:104DA000002B24DB11D000293EDA00B5C943404274
:104DB00000D1013100F038F8C943404200D101313F
:104DC000DB43524200D1013300BD002AEBD1002861
:104DD00001D1002905D00020C90FC90701D1C04366
:104DE000410800B50DF090FF0022002300BD00B582
:104DF00000290ADBDB43524200D1013300F014F8F2
:104E0000C943404200D1013100BDC943404200D1F5
:104E10000131DB43524200D1013300F005F8DB439E
:104E2000524200D1013300BD002923D1002B18D1FB
:104E3000002A0CD0BC460D4F38667A66002100234C
:104E4000FFE7FFE7FFE77A6F386F67467047002894
:104E500001D00748010000B50DF056FF00220023E5
:104E600000BD02000B00002000217047000000D0B0
:104E7000FFFFFFFF002B00D0BFE0130C28D1002A5A
:104E8000E7D080B4114F39667A66FFE7FFE730B4A8
:104E9000040C7B6F396F1B0423433B667A66FFE784
:104EA000FFE7FFE7C04684B27B6F3D6F1B042343DF
:104EB0003B667A66FFE7FFE7C04600232C042D0C13
:104EC0007A6F386F00196941B0BC7047000000D09C
:104ED000F0B594460025140E01D112020835140FC6
:104EE00001D112010435940F01D192000235D40F83
:104EF00001D152000135D40B0134254F7C66254C7D
:104F00003C660E0C93B2FFE7FFE7FFE73C6F66439A
:104F1000360C7703BE467343DF0B5B04C01AB941FE
:104F2000130C7343DB18C91ACE086643360CB6441B
:104F300093B273431F0F1B01C01AB941130C734383
:104F40001F0B1B05C01AB941860D8F023E436643F5
:104F5000360C092D24DB520A7243801A7703460A65
:104F60006643360C16235B1BDE40DF40BF196446E8
:104F70006643821B7046043506330100D940A840C1
:104F8000C01900D30131A24206D20023F0BD0000B7
:104F9000000000D0FFFFFFFF121B0130F3D3F1E749
:104FA00009277F1BFE406446A2B27243801A00D2DA
:104FB0000139220C7243130C1204821A99410B001E
:104FC0007046043513370100F940A840801900D31A
:104FD0000131002B02D1A2420AD2F0BD013000D330
:104FE0000131121BFAD2013BF8D1A24200D2F0BD2E
:104FF000013000D30131121BF7E7F0B51C0C00D0D3
:1050000080E00CB400251C0A04D11B02160E3343A9
:10501000120208351C0B04D11B01160F3343120179
:1050200004359C0B04D19B00960F3343920002354C
:10503000DC0B02D192185B4101351C0097186441CA
:105040000134464F7C66464C3C660E0CFFE7FFE79A
:10505000FFE7C0463C6F6643360C7703BE4697B207
:105060007743C01B00D20139C01B00D201399FB267
:105070007743C91BC91B170C77437E04FF0B801BAA
:10508000B941CE086643360C0C2D33DBB644120B07
:105090001F053A431B0B97B27743C01B00D201395F
:1050A0009FB27743C91B170C77433E043F0C801B0C
:1050B000B941860D8F023E43664329277F1BFE4080
:1050C0000C3D7746AF40BF1930BCA2B2ABB27243C1
:1050D0007343801A9941220C7243130C1204801AF4
:1050E000994102000B000137001BA941F9D2781E3B
:1050F0000021F0BD0C277F1BFE4077467F0BAF40A1
:10510000FF19E0E700245D1C07D0144F7D66396667
:10511000FFE7FFE7FFE7FFE73C6F95B29EB265430D
:105120006643401BB141150C1E0C654366433604B3
:105130002F0C3E432D04401BB141994204D2020082
:105140000B0020000021F0BD01D19042F7D3801A5E
:10515000994101349942F2D3F6E70000000000D0F3
:10516000FFFFFFFF44464D4656465F46F0B470478A
:10517000F0BCA046A946B246BB46704748404140F5
:10518000484018B41B4B5B68FC46019308BD04DF24
:10519000B357001018B4174B1B68FC46019308BDA9
:1051A00000DFBD5700109446134A926F920809D24F
:1051B000624618B40F4BDB68FC46019308BD0CDF58
:1051C000755A00100C4AF0B5146E556E576F166F75
:1051D0006246FFF7EEFF084A146655665767166782
:1051E000F0BD18B4034B9B68FC46019308BD08DF73
:1051F00019590010C4300020000000D0FFB5504005
:105200004240504059404B40594000E0FFB5154FD7
:105210004C00640D03D0BC4204D10C0314D8002010
:10522000090D09055C00640D03D0BC4204D11C03C8
:105230000AD800221B0D1B0501264B4009D44B4008
:1052400003D58B4200D18242FFBD9942FCD19042EE
:10525000FFBD0B43DB1803431343F5D0C943491883
:10526000FFBD0000FF07000000B5FFF7CFFF804142
:1052700000BDC04600B5FFF7C9FF01D9002000BD41
:10528000012000BD00B5FFF7B9FF01D9002000BD26
:10529000012000BD00B5FFF7B1FF804100BD012036
:1052A00040054A00121804D85A00121801D80020EC
:1052B000704701207047002070470000002100283F
:1052C00005D17047C1174840401AFAD0C90713B535
:1052D000064B1B6898470CBC441CA2401005120BDF
:1052E0000349091B09051943114310BDC4310020AE
:1052F0001F04000010B54C00620D8023D218DB00A3
:10530000D21A5B057E2A10DD9E3A13DACC17090308
:10531000490819435242D140640001341532202A11
:1053200005DAD0400843604310BD002010BD084698
:10533000604310BDC80FC018013810BD18B4044B2D
:105340005B6AFC46019308BD24DF515E001000003B
:10535000C430002018B4044B1B6EFC46019308BDFA
:1053600060DF5F5F00100000C430002018B4044B01
:10537000DB6FFC46019308BD7CDFE95E0010000096
:10538000C430002018B4044B9B69FC46019308BD4F
:1053900018DF415C00100000C4300020024A034BBB
:1053A00000B500F0E1F900BD182D4454FB2119406F
:1053B0008A0002D3920D092A08DA18B4064B1B6C36
:1053C000FC46019308BD40DF9360001000B5FFF775
:1053D000E5FF04BC9646F0E7C430002018B4044B47
:1053E0009B6DFC46019308BD58DF816100100000F1
:1053F000C430002070B513231C78012C14D0012C6C
:1054000014DC022C02DC1F4A1F4B9A641F48FFF772
:105410001DFC1F4B186070BD99001A481A4A88502D
:1054200001331F2BF8D9EAE70023FAE71948FFF701
:1054300015FC05001848FFF711FC023803789B00A3
:105440007F2B19DD802229000F4801F083FA022CFE
:10545000D7D1124B1A88B5231B029A4209D1104B9F
:105460001A88104B9A4204D10F4B1A880F4B9A425C
:10547000C7D00020FEF712FB0D4B0E4A32210E481A
:10548000FEF772FA79570010C43000204C33000048
:10549000C43100205344000053460000543800003B
:1054A000D8380000494600009C38000059460000EA
:1054B000103E0110C83E0110643E0110F0B5DE46FA
:1054C00057464E464546E0B585B004000D000092B3
:1054D00001930E9B9A46002B45DD019B191101207B
:1054E0004042FFF707FC039000239B4629E00C2372
:1054F0009946AB11039A53431D224946521A134150
:1055000001335B109846202252428B1821D422008E
:105510009A40170023004A4693401E004346D9177D
:10552000009A019B404600F035FF34003D00241AEC
:105530008D415B464A46934043449B4653469B1AE3
:105540009A465346002B11DD53460C2BCFDCD14637
:10555000CFE720235B1A2200DA4013002A008A409A
:1055600017001F43D6E700230393BDE7009A019B72
:10557000AB4209DC01D1A24206D8009A019BA41AD1
:105580009D4101239C46E344009A019BAB4209DC08
:1055900001D1A24206D8009A019BA41A9D41012381
:1055A0009C46E344002D0FDB002D16DB0F9B002BE8
:1055B00001D05A461A602000290005B0F0BCBB4655
:1055C000B246A946A046F0BD009A019BA4185D41D1
:1055D00001235B429C46E344E6E7009A019BA41842
:1055E0005D4101235B429C46E344DFE7F0B5C646DC
:1055F00000B58AB007900F0011001A00FE0F3B0D96
:105600005B055B0D3D032D0B802464030490254353
:105610000595D50FA846150D6D056D0D1203120BDE
:10562000029114430394109A002A02D00022109988
:105630000A604A4A934200D17DE0002D00D17DE00E
:10564000002B00D182E0954200D182E06A1E9A428E
:1056500000DD80E044D0002E06D0049E059F00228D
:105660007142BA410491059209AA01925B1B009311
:10567000029A039B04980599FFF720FF06000F008C
:1056800003000C009B197C412200029803998C4274
:105690000BDC01D1834208D802998B420CD1039BC9
:1056A0009A4209D1099BDB0706D5029B039CF61A97
:1056B000A741099B013309934346002B02D0099B64
:1056C0005B420993109B002B01D0099A1A60244A6F
:1056D000521B30003900FFF73DFE06000F002FE09F
:1056E000039B059999420FDD002E17D1029C039D63
:1056F00024196D4104980599001BA94106000F006B
:10570000012309931500D7E7029B039C0598A0424B
:1057100002D104999942E7D8079E11E0029E039FA7
:10572000B6197F41049B059CF61AA74101235B42F1
:1057300009931500C0E700260A4F01E00026094F33
:10574000300039000AB080BCB846F0BD0026002702
:10575000F6E7079EF4E7079EF2E7C046FF07000062
:10576000330400000000F07F10B582B000240094E4
:10577000FFF73CFF02B010BD07B56046002800D11E
:1057800000BE01880A0A0230DF2AFAD1C9B28208B3
:1057900004D3028840880004104300E00068024AF5
:1057A0005050039007BD0000C43000200FB403BC6C
:1057B0000CBCF0B50124E407634000E0F0B50C0D2B
:1057C000CF0F661E3605891B640503D3C9434042CB
:1057D00000D30131640D03D0661CF60A07D0E41B28
:1057E00000207F00791C89078912803C24031D0D4D
:1057F000DF0F6E1E36059B1B6D0503D3DB43524244
:1058000000D301336D0D03D06E1CF60A07D0ED1BDB
:1058100000227F007B1C9B079B12803D2D032F1BCA
:10582000661B58D4A446202E46DA20371400BC400C
:105830001D00BD40F24033412A4380185941CB0F2F
:1058400005D0C943C04300226442504151416246E1
:105850004D0D28D10D0D07D100281FD0241940412E
:105860004941013A0D0DF9D0640006D3013000D34F
:105870000131002C01D140084000013A0BD4941CA6
:10588000E40A04D112051144DB071944F0BDD9071D
:10589000204B194300E0D9070020F0BD0029DDD1DD
:1058A000002CDBD1F0BD0132C6074008CD072843EC
:1058B0004908002EE1D0D9E73C2E29DA203E4037B6
:1058C0001400BC4000D00124F24014431A00BB4035
:1058D0001C43D317ACE7AC46202F08DA203604006F
:1058E000B4400D00B540F84039412843A5E73C2FAE
:1058F0000CDA203F40360400B44000D00124F840C8
:1059000004430800B1400C43C117EAE71000190036
:10591000002494E70000F07FF0B50C0D661E3605FC
:10592000891BE60A6405640D02D0651CED0A04D0EB
:10593000002001210905803C2403A4461C0D671E9C
:105940003F05DB1BE70A6405640D02D0651CED0A08
:1059500004D0002201231B05803C240377406444CB
:1059600097B484B296B27443070C7E43150C6F4310
:1059700080B26843361802D3012000043F18300477
:10598000350C00197D41844688B29AB250430C0C04
:1059900062431F0C7C438EB27E43921902D30126D0
:1059A0003604A4191604170C3618674101BC81B2DD
:1059B0009AB25143040C62431B0C5C4380B25843BF
:1059C000121802D30120000424181004130C4018EC
:1059D00063412D185E410020474106BC88B293B256
:1059E00058430C0C6343120C544389B251435B1867
:1059F00002D301210904641819041A0C0918624120
:105A00006D1856410020474118BCF902720D114330
:105A1000F0026A0D1043ED020A0D03D16D194041E9
:105A20004941013B124E9B1B7600B3420ED26D00E2
:105A300007D30130002671416646354301D1400845
:105A400040001B05C918E4072144F0BD0BDA0133FF
:105A500006D1013004D101314F0D01D04908F2E7E0
:105A6000E1070020F0BD013631050020EBE7000022
:105A7000FF030000F0B51C0D671E3F05DB1BE70AA6
:105A80006405640D02D0661CF60A04D000220123CE
:105A90001B05803C2403D0252D060026F6432E66E8
:105AA0001E096E66CE0FF619B44649004F0D02D09E
:105AB0007E1CF60A03D000200021403F3F033E1B1E
:105AC000B600B444013F7F05C91B49082E6F01365B
:105AD00076089C02950D25437543ED137543AD1370
